:020000040800F2
:10000000B04800209D010008A1430008393B0008CA
:100010009D430008C1080008995100080000000035
:1000200000000000000000000000000005010008C2
:1000300011090008000000004901000821490008DA
:10004000B7010008B7010008B7010008B7010008B0
:10005000B7010008B7010008B7010008B7010008A0
:10006000B7010008B7010008B7010008B701000890
:10007000B7010008B7010008B7010008B701000880
:10008000C5080008D5080008B7010008B701000836
:10009000B7010008B7010008B7010008B701000860
:1000A000B7010008B7010008B7010008B701000850
:1000B000B7010008B7010008BD490008B7010008F2
:1000C000B7010008B7010008B7010008B701000830
:1000D000B7010008B701000889510008B7010008FE
:1000E000B7010008B7010008B7010008DFF810D019
:1000F00000F040FB00480047AD730008AFF30080FC
:10010000B0480020224B19680868B0E8F00F80F36F
:100110000988BFF36F8F4FF0000080F311884EF015
:100120000D0E70470000000006480068006880F36C
:10013000088862B661B6BFF34F8FBFF36F8F00DFE1
:1001400000BF00BF08ED00E0EFF30980BFF36F8F41
:100150000F4B1A6820E9F00F106008B54FF05000FF
:1001600080F31188BFF34F8FBFF36F8F08F0B6FE97
:100170004FF0000080F31188BDE808401968086856
:10018000B0E8F00F80F30988BFF36F8F704700BFAE
:1001900020000020EFF305807047000006488047EC
:1001A00006480047FEE7FEE7FEE7FEE7FEE7FEE75C
:1001B000FEE7FEE7FEE7FEE7BB490008ED000008AA
:1001C000202A04DB203A21FA02F00021704721FAAC
:1001D00002F3D040C2F12002914008431946704713
:1001E00040EA01039B0703D009E008C9121F08C0B9
:1001F000042AFAD203E011F8013B00F8013B521E39
:10020000F9D27047D2B201E000F8012B491EFBD2AF
:1002100070470022F6E710B513460A460446194611
:10022000FFF7F0FF204610BD30B505462A460B46C5
:1002300012F8010B13F8014B08B1A042F8D01CB121
:10024000002802D06D1CF1E7284630BD421C10F892
:10025000011B0029FBD1801A704710B5002200E075
:10026000521C835C8C5CA34201D1002BF8D1D8B224
:10027000E1B2401A10BD2DE9FE4F804681EA03002D
:10028000C00F0C46009021F0004123F00045B8EB70
:100290000200A94105D24046214690461C460B4625
:1002A000024623F00040104347D0270DC7F30A0051
:1002B000C3F30A510290401A019040286BDAC3F34D
:1002C000130040F4801B0098924620B10023D2EB2B
:1002D000030A63EB0B0B01985946C0F140025046EC
:1002E00000F0B1F906460D4650465946019A00F015
:1002F000B9F910EB08006141002487EA115284EA41
:10030000E7731A4340D0009A62B3019A012A4FEA78
:10031000075215DC001B61EB02014FF0004202EABC
:100320000752CDE90042001C41F5801132462B46B0
:1003300000F0B9F903B0BDE8F08F40462146F9E777
:10034000001B61EB0201001C41F5801300185B41AA
:100350002018A2F5001747EB030140EAD570B61943
:100360006D4111E06D084FEA360645EAC0754FEA67
:100370000752001B61EB0201001C41F58011490886
:100380004FEA30000019514132462B4603B0BDE818
:10039000F04F00F079B90098012240000023D0EB23
:1003A000020263EBE073009821464FEAE074B8EB79
:1003B000000061EB0401E9E783F000435BE781F0B3
:1003C000004158E72DE9FE4F81EA030404F00044A0
:1003D00021F0004100944FF0000B23F0004350EA5D
:1003E00001045ED052EA03045BD0C3F30A54C1F3A4
:1003F0000A552C44A4F2F3340194A0FB0254C1F337
:10040000130141F48011C3F3130343F4801301FB80
:10041000024400FB034E840A970A44EA815447EAE7
:100420008357A4FB076802958D0A05FB07854FEAF1
:10043000932C04FB0C542705029D4FEA065847EA0B
:100440001637B5EB08056EEB070C870E920E47EAE0
:10045000811742EA8312A7FB0201B6EB0B0164EBA2
:1004600000042B0D43EA0C335E1844EB1C50DA46B3
:100470005146E7FB0201C5F313044FEA0B3343EA8D
:1004800014534FEA0432019C43EA0603A4F10C041E
:100490000294009CCDE900B400F005F903B0BDE87A
:1004A000F08F00200146F9E72DE9F04D81EA0304C1
:1004B00004F0004B21F0004514464FF0000A23F0F1
:1004C000004150EA050220D054EA01021DD0C5F3D4
:1004D0000A570246C5F31303C1F31300C1F30A56CA
:1004E00040F4801543F48013A7EB0608101BD64692
:1004F00008F2FD3873EB050002D308F1010801E0B2
:1005000092185B41B8F1000F03DA00200146BDE804
:10051000F08D00204FF48011064684460EE0171B34
:1005200073EB050705D3121B63EB050306434CEA87
:10053000010C49084FEA300092185B4150EA01076C
:10054000EDD152EA030012D082EA040083EA0501E9
:10055000084305D0101BAB4106D20122002306E060
:1005600000224FF0004302E06FF0010253101AEB3B
:1005700006004CEB085110EB0A0041EB0B01BDE803
:10058000F04D00F081B8000030B5041E71F1000498
:1005900004DB4FF00044404264EB0101141E73F190
:1005A000000405DB1C464FF00043524263EB04039A
:1005B000994208BF904230BD30B50B46014600203D
:1005C0002022012409E021FA02F59D4205D303FA15
:1005D00002F5491B04FA02F52844151EA2F1010296
:1005E000F1DC30BD2DE9F05F0546002092469B46C8
:1005F00088460646814640241BE028464146474639
:100600002246FFF7DDFD53465A46C01A914110D3EA
:1006100011461846224600F016F82D1A67EB01081D
:100620004F4622460120002100F00DF817EB00098B
:100630004E41201EA4F10104DFDC484631462A4623
:100640004346BDE8F09F202A04DB203A00FA02F17D
:10065000002070479140C2F1200320FA03F31943B0
:1006600090407047202A06DBCB17203A41FA02F06F
:1006700043EAE07306E041FA02F3D040C2F12002FF
:10068000914008431946704710B5141E73F10004D9
:1006900008DA401C41F1000192185B411A4301D174
:1006A00020F0010010BD2DE9F04D92469B4611B19E
:1006B000B1FA81F202E0B0FA80F220329046FFF700
:1006C000C2FF04460F4640EA0A0041EA0B015346C6
:1006D0005A46084313D0114653EA010019D0C8F115
:1006E00040025046FFF76CFD05460E4650465946FF
:1006F0004246FFF7A8FF084305D0012004E020464A
:100700003946BDE8F08D0020054346EAE0762C43EB
:1007100037430A986305E40AA0EB08000022FD0AAB
:1007200044EA47540A3002D500200146E9E70105B2
:1007300010196941DDE9084500196941BDE8F04D2E
:10074000A2E7C1F30A52C1F3130140F2FF3341F4AF
:1007500080119A4202DA00200146704740F233438A
:100760009A42A2F2334202DC5242FFF729BDFFF760
:100770006ABF0000064C074D06E0E06840F0010348
:1007800094E8070098471034AC42F6D3FFF7B2FC68
:100790007CB700089CB7000830B58C1810F8012B06
:1007A00012F00F0301D110F8013B120906D110F825
:1007B000012B03E010F8015B01F8015B5B1EF9D12E
:1007C00001E001F8013B521EFBD1A142E6D300201B
:1007D00030BD70B5044600252068806800F0010037
:1007E00018B32068806820F001002168886001F05B
:1007F000ABFA054613E001F0A7FA401B02280ED918
:100800002068806800F0010048B1A06A40F0100044
:10081000A062E06A40F00100E062012070BD206843
:10082000806800F001000028E5D10020F6E7000014
:1008300038B504460025002000902068806800F04C
:10084000010078BB2068806840F001002168886062
:10085000194800681949B0FBF1F0009002E00098D7
:10086000401E009000980028F9D101F06DFA05466D
:1008700019E001F069FA401B022814D92068806849
:1008800000F0010078B9A06A40F01000A062E06AB0
:1008900040F00100E06200BF002084F8240000BFA7
:1008A000012038BD05E02068806800F001000028C4
:1008B000DFD00020F5E700001C00002040420F00C0
:1008C00000BFFEE710B5024800F03CFF10BD00007D
:1008D0008C02002010B5024800F034FF10BD00006B
:1008E000D002002030B590F840500124AC40C56BD8
:1008F0006C60046863604468102C04D10468A260D2
:100900000468E16003E00468A1600468E26030BD4F
:100910007047000070B505460C461D4805601D482F
:10092000046000F04FF84FF480611B48FFF771FC42
:100930001748006800B970BD4FF480621749144829
:10094000006803F081F812480068C06BB8B1104825
:100950000068C06B0068006820F004000C4909685A
:10096000C96B096808600A480068C06B00680068C5
:1009700020F0020006490968C96B0968086005484B
:10098000006818B106A10CA004F046FD00BFD2E734
:10099000B0000020B4000020883C002088300020F7
:1009A000696E69742028444D41205258202B2072D2
:1009B000696E6729000000005B45535038323636B7
:1009C0005D20000010B505F09BFB04F067FD0149B8
:1009D000088010BDB800002010B51A48006818B192
:1009E00018480068C06B00B910BD04F057FD0446FC
:1009F00015480088844200D1F6E7134800888442F5
:100A00000ADD114A1288A21A91B2104A0E4B1B88B5
:100A1000D01805F0A5FB10E00B4A1288C2F58062E1
:100A200091B20A4A084B1B88D01805F099FB002C9C
:100A300003DD2146054805F093FB0348048000BF11
:100A4000D2E70000B0000020B8000020883000206D
:100A500070B504460CB9002070BDFFF7BDFF0C480F
:100A600000880C490988884201D10020F4E70A482F
:100A700007490988405C207005480088401C85B201
:100A8000B5F5006F00D30025014805800120E3E79C
:100A9000BC000020BA000020883400202DE9F04777
:100AA00092B006468A46904699461A9C624800686B
:100AB00010B10EB1307818B9052012B0BDE8F0873A
:100AC000FFF780FF4FF480615C48FFF7A2FB5C48B2
:100AD000006828B15BA004F0B7FC304604F0B4FC19
:100AE000304600F0FBF840B15548006818B157A1F6
:100AF00058A004F091FC0420DFE701F025F9074637
:100B00000025002001907AE070E040F2FF3085423D
:100B100009D29DF800202846691C8DB247490A5425
:100B20000020485508E04648006818B14BA149A08C
:100B300004F072FC0320C0E701AB02AA9DF800108C
:100B4000204604F063FE51463C4804F0A1FDB0B1DC
:100B500064B13B48006848B1BDF8040030B1BDF84D
:100B6000041002A804F084FC0020019034480068BE
:100B700018B13EA137A004F04FFC00209DE741468C
:100B80002E4804F085FDB0B164B12D48006848B12D
:100B9000BDF8040030B1BDF8041002A804F068FCF0
:100BA000002001902648006818B135A129A004F062
:100BB00033FC002081E7214804F0E4FDB0B164B1CA
:100BC0001F48006848B1BDF8040030B1BDF80410FA
:100BD00002A804F04DFC002001901948006818B1EB
:100BE0002CA11CA004F018FC012066E76846FFF762
:100BF0002FFF002889D1012000F0F4FE00BF01F092
:100C0000A3F8C01B4845FFF47FAF64B10C480068EF
:100C100048B1BDF8040030B1BDF8041002A804F0DA
:100C200027FC002001900648006818B11EA109A009
:100C300004F0F2FB022040E7B0000020883C0020D6
:100C4000B400002054583E200000000054582046B4
:100C500041494C005245533E20000000524553503C
:100C6000204F564552464C4F570000004F4B20280E
:100C7000686974206578706563743129000000002C
:100C80004F4B202868697420657870656374322939
:100C9000000000004552524F522F4641494C2F430D
:100CA0004C4F53454400000054494D454F555400A6
:100CB00070B504460D4616460748006808B104B1F1
:100CC0000DB9012070BD33462A462146024800680E
:100CD00002F0D2FEF6E70000B000002070B5044636
:100CE0000948006800B10CB9012070BD2046FFF72B
:100CF000ADFA85B24FF4FA632A46214602480068ED
:100D000002F0BAFEF1E70000B00000202DE9F04348
:100D100093B00746894690461C465548006818B966
:100D2000052013B0BDE8F0834FF480615148FFF710
:100D300070FA01F009F806460025002002907AE0DA
:100D400070E040F2FF30854209D29DF80420284629
:100D5000691C8DB247490A540020485508E04648AE
:100D6000006818B145A149A004F056FB0320D8E75C
:100D700002AB03AA9DF80410204604F047FD394653
:100D80003C4804F085FCB0B164B13B48006848B110
:100D9000BDF8080030B1BDF8081003A804F068FBE6
:100DA000002002903448006818B13AA137A004F03E
:100DB00033FB0020B5E749462E4804F069FCB0B18A
:100DC00064B12D48006848B1BDF8080030B1BDF8E5
:100DD000081003A804F04CFB00200290264800688D
:100DE00018B132A129A004F017FB002099E721488F
:100DF00004F0C8FCB0B164B11F48006848B1BDF848
:100E0000080030B1BDF8081003A804F031FB002041
:100E100002901948006818B12AA11CA004F0FCFA3D
:100E200001207EE701A8FFF713FE002889D10120E9
:100E300000F0D8FD00BF00F087FF801B4045FFF4A5
:100E40007FAF64B10C48006848B1BDF8080030B10C
:100E5000BDF8081003A804F00BFB00200290064820
:100E6000006818B11CA109A004F0D6FA022058E7C6
:100E7000B0000020883C0020B400002052455350B0
:100E8000204F564552464C4F570000005245533EA6
:100E9000200000004F4B2028776169742068697436
:100EA0002065787065637431290000004F4B20285D
:100EB000776169742068697420657870656374323D
:100EC000290000004552524F522F4641494C2F43B2
:100ED0004C4F53454400000054494D454F55540074
:100EE00072B600BFFEE70000F8B5044600260020F9
:100EF000009000BF94F82400012801D10220F8BD21
:100F0000012084F8240000BF2046FFF762FC06465B
:100F10002046FFF78DFC0646002E69D1A06A20F41A
:100F2000885040F00200A062022001F0B3FB344977
:100F30000968B1FBF0F04000009002E00098401E0C
:100F4000009000980028F9D12068806840F00800DF
:100F50002168886000F0F8FE054616E000F0F4FE17
:100F6000401B0A2811D92068806800F0080060B191
:100F7000A06A20F0020040F01000A06200BF002034
:100F800084F8240000BF0120B9E72068806800F0E1
:100F900008000028E2D12068806840F00400216841
:100FA000886000F0D1FE054616E000F0CDFE401B43
:100FB0000A2811D92068806800F0040060B1A06A96
:100FC00020F0020040F01000A06200BF002084F872
:100FD000240000BF012092E72068806800F0040030
:100FE0000028E2D1A06A20F0020040F00100A062D7
:100FF00000BF002084F8240000BF30467FE70000D7
:101000001C00002038B5024600230020009000BFDD
:1010100092F82400012801D1022038BD012082F875
:10102000240000BF4868072812D21068406B0C7972
:10103000641E04EB84051F24AC40A0430D796D1E93
:1010400005EB85050C68AC4020431468606327E01D
:1010500048680D2812D21068006B0C79E41F04EB6D
:1010600084051F24AC40A0430D79ED1F05EB8505D9
:101070000C68AC4020431468206311E01068C06A1B
:101080000C790D3C04EB84051F24AC40A0430D7982
:101090000D3D05EB85050C68AC4020431468E0620B
:1010A00008680A2812D31068C0680C780A3C04EB60
:1010B00044050724AC40A0430D780A3D05EB4505E7
:1010C0008C68AC4020431468E0600FE01068006951
:1010D0000C7804EB44050724AC40A0430D7805EBE5
:1010E00045058C68AC4020431468206108681028CE
:1010F00002D00868112827D1174C1068A0421ED1D1
:101100001068806800F40000F0B91068806840F44E
:1011100000001468A0600868102815D10F48006806
:101120000F4CB0FBF4F000EB80004000009002E0B8
:101130000098401E009000980028F9D104E0906AC1
:1011400040F020009062012300BF002082F82400BC
:1011500000BF184661E70000002401401C00002089
:1011600040420F0001460868C06C70472DE9F0410D
:101170000446002700250026A84614B90120BDE832
:10118000F081A06810B1207D00B100BFA06A30B925
:101190000020E06284F82400204600F089F8204610
:1011A000FFF717FB0746A06A00F01000002873D174
:1011B000002F71D1A06A20F4885040F00200A06294
:1011C000E16960680843217B40EA41000643A0686A
:1011D000B0F5807F02D0A068012802D14FF4807062
:1011E00000E000200543207D012811D1207B38B983
:1011F000A069401E4FF4006141EA4030054307E01A
:10120000A06A40F02000A062E06A40F00100E062C5
:101210002068406820F469402843216848602068BD
:10122000806821490840304321688860A068B0F593
:10123000807F02D0A068012802D14FF4807000E0C6
:101240000020B0F5807F03D1208A401E4FEA00586D
:101250002068C06A20F4700040EA08002168C86273
:101260002068806811490840B04208D10020E0623F
:10127000A06A20F0020040F00100A06211E0A06A24
:1012800020F0020040F01000A062E06A40F001008F
:10129000E062012705E0FFE7A06A40F01000A062CD
:1012A000012738466BE70000FDF7E1FFFE0E1FFF48
:1012B00010B586B00446002002900390049005907B
:1012C0001E492068884237D100BF1D48806940F41C
:1012D00000701B4988610846806900F40070019025
:1012E00000BF00BF00BF0846806940F0040088616D
:1012F0000846806900F00400019000BF00BF00BFF5
:101300000846806940F0080088610846806900F05E
:101310000800019000BF00BF32200290032003901C
:1013200002A9084800F072FB0220029003200390FB
:1013300002A9054800F06AFB06B010BD0024014078
:101340000010024000080140000C0140F8B50446BE
:101350000D46002600200090002700F0F5FC064610
:101360002068806800F4807050B1A06A40F02000CE
:10137000A06200BF002084F8240000BF0120F8BD57
:101380002068406800F4807020BB2068C06A00F4C8
:101390007000F8B917E0681CA8B125B100F0D4FCC2
:1013A000801BA8420FD92068006800F0020050B9E5
:1013B000A06A40F00400A06200BF002084F824006E
:1013C00000BF0320DBE72068006800F0020000286F
:1013D000E1D053E0022001F05DF938490968B1FB22
:1013E000F0F021680969364A114091B92168C9684D
:1013F0009211114069B921680969324A114031B925
:101400002168C9689211114009B9142117E02921F6
:1014100015E0216809692B4A114021B92168C96882
:101420009211114041B121680969274A114029B937
:101430002168C968114009B9542100E0FC2100FB72
:1014400001F718E0681C98B125B100F07DFC801B05
:10145000A8420DD90098B8420AD2A06A40F0040010
:10146000A06200BF002084F8240000BF032086E7AC
:101470000098401C00900098B842E3D36FF012002F
:1014800021680860A06A40F40070A062206880684B
:1014900000F46020B0F5602F0DD1207B58B9A06A10
:1014A00020F48070A062A06A00F4805018B9A06A8D
:1014B00040F00100A062002061E700001C00002055
:1014C00024499224922449124992240070B504467A
:1014D000002500BF94F82400012801D1022070BD2E
:1014E000012084F8240000BF2046FFF7A1F905463B
:1014F000002D77D1A06A40F20121884340F480702A
:10150000A0623C492068884208D13B48006800F44A
:10151000702008B9012002E0002000E0012078B12D
:10152000A06A20F48010A0622068406800F4806007
:1015300000B3A06A20F4005040F48050A06219E08B
:10154000A06A40F48010A0622B49091F20688842DD
:1015500003D028492068884204D12748006800F455
:10156000806000E0002028B1A06A20F4005040F420
:101570008050A062A06A00F4805020B1E06A20F0A0
:101580000600E06201E00020E06200BF002084F875
:10159000240000BFC01E216808602068806800F435
:1015A0006020B0F5602F16D112492068884208D11A
:1015B0001148006800F4702008B9012002E0002002
:1015C00000E0012038B12068806840F4A000216864
:1015D00088600CE006E02068806840F48010216894
:1015E000886004E000BF002084F8240000BF284683
:1015F00075E70000002801400424014070B504464E
:10160000002500BF94F82400012801D1022070BDFC
:10161000012084F8240000BF2046FFF7DAF80546D1
:101620002DB9A06A20F4885040F00100A06200BFEC
:10163000002084F8240000BF2846E8E70146002285
:1016400091F82100022808D00420886300BF002000
:1016500081F8200000BF012070470868006820F072
:101660000E000B6818600868006820F001000B6825
:10167000186091F8403001209840CB6B58600120F1
:1016800081F8210000BF002081F8200000BF104633
:10169000E2E7000070B50446002594F82100022816
:1016A00003D00420A063012548E02068006820F0F2
:1016B0000E00216808602068006820F001002168A1
:1016C00008601F492068884201D1012026E01C499A
:1016D00014312068884201D110201FE018492831B8
:1016E0002068884201D1801518E015493C312068F6
:1016F000884201D1801411E011495031206888429C
:1017000002D14FF4803009E00D49643120688842ED
:1017100002D14FF4801001E04FF080700849083981
:101720004860012084F8210000BF002084F82000D8
:1017300000BF606B10B12046616B8847284670BDC2
:101740000800024070B50446E06B05682068066832
:1017500094F84010042088402840002846D006F025
:101760000400002842D02068006800F0200028B95A
:101770002068006820F0040021680860574920684C
:10178000884201D1042027E054491431206888425E
:1017900001D1402020E0514928312068884201D100
:1017A000001519E04D493C312068884202D14FF4C0
:1017B000804011E0494950312068884202D14FF4FD
:1017C000802009E0454964312068884202D14FF405
:1017D000800001E04FF08060404908394860E06ACD
:1017E00000287AD02046E16A884776E094F84010D5
:1017F000022088402840A0B306F0020088B3206889
:10180000006800F0200040B92068006820F00A005D
:1018100021680860012084F821003049206888424E
:1018200001D1022028E02D4914312068884201D1DD
:10183000202021E0294928312068884201D1401523
:101840001AE026493C312068884202D14FF400500A
:1018500012E0224950312068884203D14FF4003011
:101860000AE017E01D4964312068884202D14FF434
:10187000001001E04FF0007018490839486000BFBF
:10188000002084F8200000BFA06A30B32046A16A7F
:10189000884722E094F84010082088402840E0B1B2
:1018A00006F00800C8B12068006820F00E0021682A
:1018B000086094F8401001208840E16B48600120E6
:1018C000A06384F8210000BF002084F8200000BF3E
:1018D000206B10B12046216B884770BD0800024084
:1018E0000146002209B901207047164B0868C01A4A
:1018F0001423B0FBF3F08000086412480838C86372
:10190000022081F821000868026843F6F0708243E3
:10191000D1E901031843CB6818430B6918434B699D
:1019200018438B691843CB69184302430868026067
:1019300000208863012081F82100002081F8200028
:1019400000BFD1E7080002402DE9F04104460D46F2
:1019500016461F464FF0000800BF94F820000128EB
:1019600002D10220BDE8F081012084F8200000BFF0
:1019700094F8210001282CD1022084F821000020B5
:10198000A0632068006820F00100216808603B46E1
:10199000324629462046FEF7A5FFE06A30B12068AE
:1019A000006840F00E00216808600BE020680068C5
:1019B00020F00400216808602068006840F00A00F8
:1019C000216808602068006840F001002168086014
:1019D00006E000BF002084F8200000BF4FF002089E
:1019E0004046BFE770B5044600F0AEF9064625460E
:1019F000681C10B104480078054400BF00F0A4F949
:101A0000801BA842FAD370BD180000202DE9F847CA
:101A10000346002294466EE14FF0010808FA02F4F2
:101A2000D1F8008008EA0400A0427DD1DFF8DCA2F2
:101A3000D1F80480A8EB0A09D0453AD014DCB8F1FB
:101A4000030F50D009DCB8F1000F31D0B8F1010F0D
:101A50001CD0B8F1020F49D120E0B8F1110F18D015
:101A6000B8F1120F42D11EE0B9F5881F25D006DC6F
:101A7000B9F5803F20D0B9F5801F37D11AE0B9F50C
:101A8000001F18D0B9F5041F30D117E0D1F80CC0F1
:101A90002DE0D1F80C8008F1040C28E0D1F80C807E
:101AA00008F1080C23E0D1F80C8008F10C0C1EE0C2
:101AB00000BF00BF00BF00BF00BF00BFD1F808805B
:101AC000B8F1000F02D14FF0040C0BE0D1F8088000
:101AD000B8F1010F03D14FF0080C1C6102E04FF088
:101AE000080C5C6103E04FF0000C00E000BF00BF99
:101AF000FF2801D8984601E003F104084646FF2874
:101B000002D84FEA820803E0A2F108084FEA8808E9
:101B10004746D6F800804FF00F0909FA07F928EA7E
:101B200009080CFA07F900E088E048EA0908C6F855
:101B30000080D1F8048008F08058B8F1805F7DD132
:101B400000BFDFF8CC81D8F8188048F00108DFF832
:101B5000C091C9F81880C846D8F8188008F0010864
:101B6000CDF8008000BF00BF4FEAB9384FEA9209B4
:101B700058F829504FEA82784FEA18794FF00F0849
:101B800008FA09F825EA0805DFF88881434502D1FB
:101B90004FF0000816E0DFF88081434502D14FF096
:101BA00001080FE0DFF87481434502D14FF00208CD
:101BB00008E0DFF86C81434502D14FF0030801E0F3
:101BC0004FF004084FEA82794FEA197908FA09F8C8
:101BD00048EA0505DFF84C814FEA920948F8295098
:101BE000D1F8048008F48018B8F5801F0AD1DFF816
:101BF0003881D8F8008048EA0008DFF82C91C9F84D
:101C0000008009E0DFF82081D8F8008028EA000889
:101C1000DFF81491C9F80080D1F8048008F40018A6
:101C2000B8F5001F10D1DFF8008108F10408D8F8DA
:101C3000008048EA0008DFF8F09000E05AE009F17F
:101C40000409C9F800800DE0DFF8DC8008F1040821
:101C5000D8F8008028EA0008DFF8CC9009F10409E0
:101C6000C9F80080D1F8048008F40038B8F5003FC6
:101C70000ED1DFF8B480A8F10408D8F8008048EA53
:101C80000008DFF8A490A9F10409C9F800800DE06C
:101C9000DFF89480A8F10408D8F8008028EA00084A
:101CA000DFF88490A9F10409C9F80080D1F8048014
:101CB00008F48038B8F5803F0ED1DFF86C80A8F1C9
:101CC0000808D8F8008048EA0008DFF85C90A9F11D
:101CD0000809C9F800800DE0DFF84C80A8F1080879
:101CE000D8F8008028EA0008DFF83C90A9F108093C
:101CF000C9F80080521CD1F8008028FA02F8B8F127
:101D0000000F7FF489AEBDE8F887000000001110D5
:101D10000010024000080140000C0140001001408A
:101D20000014014008000140080401400246936885
:101D30000B400BB1012000E0002070470AB10161A7
:101D400001E00B0403617047014800687047000020
:101D500010000020014691F83D00704770B5044620
:101D60000CB9012070BD94F83D0028B9002084F81A
:101D70003C00204600F048FB242084F83D00206809
:101D8000006820F00100216808602068006840F4C5
:101D90000040216808602068006820F40040216845
:101DA000086000F07BFE05465C496068884206D802
:101DB0005B48854201D2012007E0002005E0594838
:101DC000854201D2012000E00020012800D1C9E7AE
:101DD0005548B5FBF0F62068406820F03F003043DE
:101DE000216848604D496068884201D8701C07E04E
:101DF0004FF4967070434FF47A71B0FBF1F0401CD1
:101E00002168096A21F03F010843216808624349BB
:101E10006068884214D8681E61684900B0FBF1F020
:101E2000401CC0F30B00042801D204203DE0681ED2
:101E300061684900B0FBF1F0401CC0F30B0034E0D6
:101E4000A06838B9681E616801EB4101B0FBF1F090
:101E5000401C0AE0681E616801EBC10202EB01113F
:101E6000B0FBF1F0401C40F48040C0F30B0008B917
:101E700001201AE0A06848B9681E616801EB4101C1
:101E8000B0FBF1F0401CC0F30B000CE0681E616871
:101E900001EBC10202EB0111B0FBF1F0401CC0F3F9
:101EA0000B0040F4804040F400402168C9694CF6C2
:101EB000FF72914308432168C861D4E907010843D0
:101EC0002168096821F0C001084321680860D4E94D
:101ED000031008432168896848F2FF3291430843A0
:101EE00021688860D4E9050108432168C96821F0A8
:101EF000FF0108432168C8602068006840F00100C5
:101F00002168086000202064202084F83D00002023
:101F1000206384F83E0000BF24E70000A086010093
:101F200080841E0000093D0040420F002DE9FC475F
:101F300004468946174698460A9E00200190FFF7FE
:101F400003FF054694F83D0020286FD11923012294
:101F5000CD492046009501F040FF10B10220BDE8B8
:101F6000FC8700BF94F83C00012801D10220F6E76D
:101F7000012084F83C0000BF2068006800F00100E8
:101F800028B92068006840F00100216808602068D6
:101F9000006820F4006021680860222084F83D0079
:101FA000102084F83E00002020646762A4F82A8094
:101FB000608D2085B548E0622B4632464946204672
:101FC00001F0DCFD08B10120C9E7208D88B900BF10
:101FD000002000902068406900902068806900908F
:101FE00000BF00BF2068006840F4007021680860EE
:101FF0004BE0208D01281AD12068006820F4806011
:102000002168086072B600BF002000902068406917
:10201000009020688069009000BF00BF20680068C1
:1020200040F400702168086062B62EE029E1208D3E
:10203000022819D12068006840F400602168086017
:1020400072B600BF002000902068406900902068B0
:102050008069009000BF00BF2068006820F48060A5
:102060002168086062B610E02068006840F4806073
:102070002168086000BF002000902068406900903F
:1020800020688069009000BF00BFEBE0208D03282E
:102090007ED8208D012815D12A463146204601F0F0
:1020A00078FF08B101205AE720680069616A08706A
:1020B000606A401C6062208D401E2085608D401E3D
:1020C0006085CFE0208D02282CD133460022704954
:1020D0002046009501F081FE08B101203FE772B66D
:1020E0002068006840F4007021680860206800697A
:1020F000616A0870606A401C6062208D401E208505
:10210000608D401E608562B620680069616A087053
:10211000606A401C6062208D401E2085608D401EDC
:1021200060859FE03346002259492046009501F022
:1021300054FE08B1012012E72068006820F4806096
:102140002168086072B620680069616A0870606A78
:10215000401C6062208D401E2085608D401E608581
:102160004C4800681921B0FBF1F04FF47A71B0FBD4
:10217000F1F0C0EBC00000EB8000019000BF0198BF
:10218000401E01900198A8B900202063202000E0A3
:1021900038E084F83D00002084F83E00206C40F0D8
:1021A0002000206462B600BF002084F83C0000BF1D
:1021B0000120D4E620684069C0F380000028DED00A
:1021C0002068006840F40070216808602068006999
:1021D000616A0870606A401C6062208D401E208524
:1021E000608D401E608562B620680069616A087073
:1021F000606A401C6062208D401E2085608D401EFC
:1022000060852FE02A463146204601F0C2FE08B123
:102210000120A4E620680069616A0870606A401CB9
:102220006062208D401E2085608D401E6085206884
:102230004069C0F38000A8B1208D032805D1206833
:10224000006820F480602168086020680069616A85
:102250000870606A401C6062208D401E2085608D81
:10226000401E6085208D00287FF410AF202084F868
:102270003D00002084F83E0000BF84F83C0000BF11
:102280006DE602206BE60000020010000000FFFF78
:10229000040001001C0000202DE9F8430446894693
:1022A00016461F46DDF82080FFF74EFD054694F8E0
:1022B0003D0020287ED11923012251492046009556
:1022C00001F08BFD10B10220BDE8F88300BF94F847
:1022D0003C00012801D10220F6E7012084F83C00EF
:1022E00000BF2068006800F0010028B9206800687D
:1022F00040F00100216808602068006820F4006058
:1023000021680860212084F83D00102084F83E00F8
:102310000020206466626785608D20853948E06210
:102320002B4642464946204601F0C4FC08B1012034
:10233000CAE700BF00200090206840690090206834
:102340008069009000BF00BF44E02A464146204615
:1023500001F064FE50B1206C042805D120680068AB
:1023600040F40070216808600120ADE7606A0078E1
:1023700021680861606A401C6062608D401E608553
:10238000208D401E208520684069C0F3800070B118
:10239000208D60B1606A007821680861606A401C25
:1023A0006062608D401E6085208D401E20852A461B
:1023B000414600E022E0204601F0DCFC50B1206CF8
:1023C000042805D12068006840F400702168086086
:1023D000012079E7208D0028B7D12068006840F4FB
:1023E000007021680860202084F83D00002084F8F7
:1023F0003E0000BF84F83C0000BF65E7022063E7B1
:10240000020010000000FFFF10B586B00446002057
:10241000029003900490059015492068884225D1C8
:1024200000BF1448806940F00800124988610846DE
:10243000806900F00800019000BF00BFC02002903A
:10244000122003900320059002A90B48FFF7DEFA43
:1024500000BF0848C06940F400100649C86108463A
:10246000C06900F40010019000BF00BF06B010BDAD
:102470000054004000100240000C01400348006876
:10248000034909780844014908607047100000209A
:102490001800002010B50848006840F010000649F8
:1024A0000860032000F0E2F80F2000F007F800F0C9
:1024B0005FF8002010BD0000002002402DE9F0412F
:1024C00088B004460027B846002600BF2348C069EC
:1024D00040F004002149C8610846C06900F00400CA
:1024E000019000BF00BF02A903A800F0AFFA069F49
:1024F0001FB900F0D3FA054602E000F0CFFA45001C
:102500001748B5FBF0F0A0F101081648164908601D
:1025100040F2E7311448C160C0F804800021016135
:102520008160816100F088FD064696B90E4800F092
:10253000B7FD06466EB91E2000F04AF8102C07D2EF
:10254000002221461E2000F053F80848046000E0F5
:102550000126304608B0BDE8F081000000100240BE
:1025600040420F0000080040140300201400002027
:1025700008B500BF1448806940F001001249886125
:102580000846806900F00100009000BF00BF00BF56
:102590000846C06940F08050C8610846C06900F034
:1025A0008050009000BF00BF00220F21901E00F05D
:1025B0001FF800BF0549486820F0E06040F0007057
:1025C000486000BF08BD000000100240000001404C
:1025D00001460846002809DB00F01F0301229A404B
:1025E00043099B0003F1E023C3F8002100BF7047BB
:1025F0002DE9F05F80460D461646002702F0FAFDF1
:10260000074639462A46334601F00700C0F1070A5B
:10261000BAF1040F02D94FF0040A01E0C0F1070A31
:10262000D14600F1040ABAF1070F02D24FF0000AB6
:1026300001E0A0F1030AD4464FF0010A0AFA09FAB0
:10264000AAF1010A0AEA020A0AFA0CFA4FF0010B8F
:102650000BFA0CFBABF1010B0BEA030B4AEA0B0480
:102660002146404602F0CEFDBDE8F09F00BF00F0DD
:102670000702064B19684FF6FF031940044B0B4342
:1026800043EA0221014B196000BF70470CED00E0E6
:102690000000FA052DE9F04706464FF00008002536
:1026A00000270024A146012E31D0022E56D0102E34
:1026B0005FD132484468006800F0807008B3304849
:1026C000C4F38341475C04F4803078B12B48406800
:1026D000C0F340402B4911F8008004F4803040B131
:1026E0002948B0FBF8F000FB07F502E0274807FB9C
:1026F00000F52248406800F48000B0F5800F01D159
:10270000A94603E068000321B0FBF1F932E01B4861
:10271000046A04F44070B0F5807F05D104F0020033
:1027200010B14FF4004918E004F44070B0F5007F98
:1027300007D11248406A00F0020010B149F6404942
:102740000BE004F44070B0F5407F06D10B48006800
:1027500000F4003008B14FF224490BE000F0AEF96C
:1027600006494968C1F38131491C4900B0FBF1F9C0
:1027700000E000BF00BF4846BDE8F08700100240FF
:1027800046A1000856A1000800127A0000093D0089
:10279000F8B5044600260025207800F00100002846
:1027A0006BD000274348C06900F0805070B900BF6B
:1027B0004048C06940F080503E49C8610846C06941
:1027C00000F08050009000BF00BF01273A48006829
:1027D00000F48070B0B93848006840F48070364921
:1027E0000860FFF7B1FA064606E0FFF7ADFA801B76
:1027F000642801D90320F8BD2F48006800F48070D8
:102800000028F2D02B48006A00F440752DB3A08850
:1028100000F44070A84220D02648006A20F4407599
:10282000012026490860002008602248056205F062
:10283000010090B1FFF788FA064608E0FFF784FA36
:10284000801B41F28831884201D90320D3E719481F
:10285000006A00F002000028F0D01648006A20F458
:1028600040706168084313490862012F04D108468B
:10287000C06920F08050C86100BF207800F00200DD
:10288000022807D10B48406820F44040A168084363
:1028900008494860207800F01000102807D105484A
:1028A000406820F48000E168084302494860002045
:1028B000A1E70000001002400070004040044242C6
:1028C00070B504460D460CB9012070BD5A48006829
:1028D00000F00700A8420ED25748006820F0070019
:1028E0002843554908600846006800F00700A842E0
:1028F00001D00120E9E7207800F0020002281DD174
:10290000207800F00400042805D14C48406840F4C9
:10291000E0604A494860207800F00800082805D1A6
:102920004648406840F46050444948604348406825
:1029300020F0F000A168084340494860207800F08A
:10294000010078B36068012806D13C48006800F4B3
:10295000003090B90120B8E76068022806D13748F6
:10296000006800F0007040B90120AEE7334800680D
:1029700000F0020008B90120A7E73048406820F0C5
:102980000300616808432D494860FFF7DDF90646FA
:1029900009E0FFF7D9F9801B41F28831884202D95A
:1029A000032092E707E02548406800F00C006168CA
:1029B000B0EB810FEDD12048006800F00700A8427D
:1029C0000ED91D48006820F0070028431A49086006
:1029D0000846006800F00700A84201D0012074E713
:1029E000207800F00400042807D11448406820F43F
:1029F000E060E168084311494860207800F0080071
:102A0000082808D10D48406820F46050216940EA48
:102A1000C1000A49486000F061F808494968C1F3FB
:102A20000311074A515CC84006490860064800681F
:102A3000FFF744FD002048E700200240001002405C
:102A400058A100081C000020140000200F22026082
:102A50000D4A526802F0030242600B4A526802F0CB
:102A6000F0028260084A526802F4E062C260064ADC
:102A7000526802F46052D2080261044A126802F0FD
:102A800007020A6070470000001002400020024068
:102A900001480068704700001C00002000B5FFF7E7
:102AA000F7FF04494968C1F30221034A515CC84059
:102AB00000BD00000010024068A1000800B5FFF74B
:102AC000E7FF04494968C1F3C221034A515CC84089
:102AD00000BD00000010024068A1000870B5002190
:102AE0000022002400230020134D696801F00C052A
:102AF000F5B1042D02D0082D19D101E00F4819E0DD
:102B00000F4DC1F38346AB5D01F4803555B10A4DDD
:102B10006D68C5F340450B4E725D084D5D43B5FBD6
:102B2000F2F402E0084D03FB05F4204602E000BF8A
:102B3000024800BF00BF70BD0010024000127A00C2
:102B400034A1000844A1000800093D00F8B504467E
:102B50000CB90120F8BD207800F00100002878D0E1
:102B6000F848406800F00C0004280CD0F548406894
:102B700000F00C00082811D1F248406800F48030C1
:102B8000B0F5803F0AD1EF48006800F4003000281B
:102B90005FD0606800285CD10120DBE700BF60687F
:102BA000B0F5803F06D1E748006840F48030E54941
:102BB000086028E0606858B9E248006820F4803076
:102BC000E04908600846006820F4802008601AE0A8
:102BD0006068B0F5A02F0BD1DA48006840F480207F
:102BE000D84908600846006840F4803008600AE070
:102BF000D448006820F48030D24908600846006854
:102C000020F48020086000BF606888B1FFF79CF85E
:102C1000054606E0FFF798F8401B642801D9032019
:102C200098E7C848006800F400300028F2D010E0AF
:102C3000FFF78AF8054606E0FFF786F8401B642890
:102C400001D9032086E7BF48006800F4003000285F
:102C5000F2D1207800F00200022857D1B94840682C
:102C600000F00C0050B1B748406800F00C00082894
:102C700018D1B448406800F4803098B9B148006871
:102C800000F0020020B12069012801D0012061E795
:102C9000AC48006820F0F800616940EAC100A94929
:102CA000086033E02069E8B10120A7490860FFF718
:102CB0004BF8054606E0FFF747F8401B022801D90C
:102CC000032047E79F48006800F002000028F2D088
:102CD0009C48006820F0F800616940EAC100994909
:102CE000086013E0002098490860FFF72DF80546BA
:102CF00006E0FFF729F8401B022801D9032029E745
:102D00009048006800F002000028F2D1207800F01E
:102D1000080008282DD1A069B8B101208B490860AE
:102D2000FFF712F8054606E0FFF70EF8401B0228F1
:102D300001D903200EE78348406A00F00200002812
:102D4000F2D0012001F0D8FD13E000207F49086097
:102D5000FEF7FAFF054606E0FEF7F6FF401B0228E5
:102D600001D90320F6E67748406A00F00200002807
:102D7000F2D1207800F00400042873D100277148B4
:102D8000C06900F0805070B900BF6E48C06940F063
:102D900080506C49C8610846C06900F080500090BE
:102DA00000BF00BF01276A48006800F48070B0B916
:102DB0006748006840F4807065490860FEF7C4FF0A
:102DC000054606E0FEF7C0FF401B642801D903203A
:102DD000C0E65F48006800F480700028F2D000BFB1
:102DE000E068012806D15748006A40F001005549C3
:102DF000086227E0E06858B95248006A20F00100F4
:102E0000504908620846006A20F00400086219E090
:102E1000E06805280BD14B48006A40F0040049499E
:102E200008620846006A40F0010008620AE045486E
:102E3000006A20F00100434908620846006A20F059
:102E40000400086200BFE068A0B1FEF77DFF054600
:102E500009E0FEF779FF401B41F28831884202D930
:102E6000032077E622E03748006A00F002000028DD
:102E7000EFD012E0FEF768FF054608E0FEF764FFBA
:102E8000401B41F28831884201D9032062E62D4877
:102E9000006A00F002000028F0D1012F05D1294876
:102EA000C06920F080502749C86100BFE069C8B3FD
:102EB0002448406800F00C00082860D0E06902282F
:102EC00048D1002020490866FEF73EFF054606E08F
:102ED000FEF73AFF401B022801D903203AE61948C1
:102EE000006800F000700028F2D1206AB0F5803F41
:102EF00007D11448406820F40030A1680843114904
:102F00004860D4E9080108430E49496821F4741166
:102F100008430C49486001200B490866FEF714FF7E
:102F2000054607E03DE0FEF70FFF401B022801D9F0
:102F300003200FE60348006800F000700028F2D07C
:102F40002FE0000000100240000042428004424294
:102F500000700040002014490866FEF7F5FE0546A3
:102F600006E0FEF7F1FE401B022801D90320F1E53F
:102F70000E48006800F000700028F2D111E0E0690E
:102F8000012800D1E6E50948466806F48031206A48
:102F9000814204D106F47011606A814201D001209F
:102FA000D8E50020D6E500000000424200100240B3
:102FB0007047704730B502460B4600BF92F83C00A0
:102FC000012801D1022030BD012082F83C0000BF61
:102FD000022082F83D00106844681068816824F07F
:102FE00070041868044310684460104D1068A842CB
:102FF0000BD01068B0F1804F07D00D4D1068A8427B
:1030000003D00C4D1068A84205D121F0800158680A
:10301000014310688160012082F83D0000BF00205C
:1030200082F83C0000BF00BFCDE70000002C01404B
:10303000000400400008004010B504460CB901200F
:1030400010BD94F83D0028B9002084F83C002046CB
:1030500000F025F8022084F83D00211D206801F0D1
:10306000B5FC012084F8460000BF84F83E00012131
:103070003F200155402001554120015500BF00BFB0
:10308000012084F842004320015544200155452089
:10309000015500BF012084F83D000020D0E77047B3
:1030A000014691F83D00012801D00120704702201F
:1030B00081F83D000868C06840F001000B68D860E6
:1030C000124B086898420BD00868B0F1804F07D0C7
:1030D0000F4B0868984203D00E4B086898420CD1F9
:1030E0000868806800F00702062A0CD008680068AB
:1030F00040F001000B68186005E00868006840F0C7
:1031000001000B6818600020D0E70000002C01408F
:103110000004004000080040704770B50446206875
:10312000C5682068066906F00200022819D105F07A
:103130000200022815D1401F216808610120207774
:103140002068806900F0030018B12046FFF7E4FF13
:1031500005E0204600F0C4F8204600F08FF900207A
:10316000207706F00400042819D105F00400042893
:1031700015D1C0432168086102202077206880694A
:1031800000F4407018B12046FFF7C6FF05E0204666
:1031900000F0A6F8204600F071F90020207706F034
:1031A0000800082819D105F00800082815D1C043E7
:1031B00021680861042020772068C06900F00300BE
:1031C00018B12046FFF7A8FF05E0204600F088F878
:1031D000204600F053F90020207706F01000102858
:1031E00019D105F01000102815D1C04321680861DD
:1031F000082020772068C06900F4407018B120468C
:10320000FFF78AFF05E0204600F06AF8204600F04C
:1032100035F90020207706F0010048B105F00100E3
:1032200030B16FF0010021680861204600F092F98A
:1032300006F08000802809D105F08000802805D1A3
:10324000C043216808612046FFF7B2FE06F0400047
:10325000402809D105F04000402805D1C04321682D
:103260000861204600F082F906F02000202809D1EC
:1032700005F02000202805D1C043216808612046C0
:10328000FFF797FE70BD000010B586B00446002021
:1032900002900390049005900E492068884216D150
:1032A00000BF0D48806940F004000B498861084662
:1032B000806900F00400019000BF00BF4020029030
:1032C00002200390059002A90448FEF79FFB06B078
:1032D00010BD000000040040001002400008014042
:1032E00070472DE9F04104460D461646002700BF01
:1032F00094F83C00012802D10220BDE8F0810120B1
:1033000084F83C0000BF36B1042E1BD0082E31D00B
:103310000C2E5ED145E02946206801F0ABFB206809
:10332000806940F00800216888612068806920F089
:103330000400216888612068806929690843216840
:10334000886148E02946206801F0C4FB2068806954
:1033500040F40060216888612068806920F4806002
:103360002168886120688069296940EA0120216814
:10337000886130E02946206801F0E0FB2068C069E0
:1033800040F008002168C8612068C06920F004008E
:103390002168C8612068C069296908432168C8613B
:1033A00019E02946206801F0FDFB2068C06940F45F
:1033B00000602168C8612068C06920F480602168CD
:1033C000C8612068C069296940EA01202168C86194
:1033D00001E0012700BF00BF00BF002084F83C00CF
:1033E00000BF384689E710B504460CB9012010BD6E
:1033F00094F83D0028B9002084F83C00204600F0F5
:1034000025F8022084F83D00211D206801F0DEFA35
:10341000012084F8460000BF84F83E0001213F20CF
:103420000155402001554120015500BF00BF01203A
:1034300084F84200432001554420015545200155A0
:1034400000BF012084F83D000020D0E708B5094AFC
:10345000016891420DD100BF0749C96941F00201DD
:10346000054AD1611146C96901F00201009100BF0E
:1034700000BF08BD0004004000100240704700007B
:1034800070B504460D4615B994F83E000BE0042DC6
:1034900002D13F20005D06E0082D02D14020005DF2
:1034A00001E04120005D012801D0012070BD1DB95F
:1034B000022084F83E000EE0042D03D102213F20BB
:1034C000015508E0082D03D102214020015502E0FA
:1034D00002214120015501222946206801F0B8FA55
:1034E00019492068884201D1012000E0002028B15C
:1034F0002068406C40F4004021684864124920680C
:1035000088420BD02068B0F1804F07D00F49206867
:10351000884203D00E49206888420CD12068806818
:1035200000F00706062E0CD02068006840F001006D
:103530002168086005E02068006840F0010021680B
:1035400008600020B2E70000002C014000040040A9
:103550000008004010B5044603492068884201D1A4
:10356000FEF78CFF10BD0000000800407047704758
:10357000704700002DE9F84F044620680568206870
:10358000C668206847694FF00009CA4605F00F0970
:10359000B9F1000F0AD105F0200038B106F0200083
:1035A00020B1204601F019FCBDE8F88FB9F1000FF9
:1035B0007BD007F0010018B906F49070002874D091
:1035C00005F0010030B106F4807018B1606C40F075
:1035D0000100606405F0040030B107F0010018B18B
:1035E000606C40F00200606405F0020030B107F04A
:1035F000010018B1606C40F00400606405F0080040
:1036000048B106F0200010B907F0010018B1606C55
:1036100040F008006064606C002845D005F0200090
:1036200028B106F0200010B1204601F0D6FB20683A
:103630004069C0F3801A606C00F0080010B9BAF15C
:10364000000F2CD0204601F06FFB2068406900F08D
:10365000400000B300BF00BF2168143151E8001FD3
:1036600021F040002168143141E80002002AF3D122
:1036700000BFE06B50B17748E16B4863E06BFEF749
:1036800009F888B1E06B416B88470DE02046FFF7F1
:103690006FFF09E009E02046FFF76AFF04E02046DB
:1036A000FFF766FF002060647EE7206B012877D17A
:1036B00005F01000002873D006F010000028FAD0A2
:1036C00000BF0020009020680068009020684068DB
:1036D000009000BF00BF2068406900F04000002853
:1036E0005FD0E06B006840681FFA80F8B8F1000F07
:1036F00055D0A08D404552DDA4F82E80E06B806946
:10370000202843D000BF00BF21680C3151E8001FC2
:1037100021F4807021680C3141E80002002AF3D1C5
:1037200000BF00BF00BF2168143151E8001F21F025
:1037300001002168143141E80002002AF3D100BFE2
:1037400000BF00BF2168143151E8001F21F0400084
:103750002168143141E80002002AF3D100BF202083
:1037600084F842000020206300BF00BF21680C31B4
:1037700051E8001F21F0100021680C3141E80002DF
:10378000002AF3D100BFE06BFDF758FF0220606311
:10379000A08DE28D801A81B22046FFF7E8FE03E794
:1037A00042E0A08DE18D401A1FFA80F8E08DD0B381
:1037B000B8F1000F37D000BF00BF21680C3151E8CD
:1037C000001F21F4907021680C3141E80002002AAA
:1037D000F3D100BF00BF00BF2168143151E8001FC2
:1037E00021F001002168143141E80002002AF3D1E0
:1037F00000BF202084F842000020206300BF00BFEB
:1038000021680C3151E8001F21F0100021680C31B3
:1038100041E80002002AF3D100BF02206063414664
:103820002046FFF7A4FEBFE605F0800030B106F0A9
:10383000800018B1204601F031FCB5E605F04000EB
:1038400030B106F0400018B1204601F0A3FAABE613
:1038500000BFA9E6ED4B000810B504460CB90120E5
:1038600010BDA06900B100E000BF94F8410028B984
:10387000002084F84000204600F02AF8242084F834
:1038800041002068C06820F400502168C8602046CC
:1038900001F022FB2068006920F490402168086153
:1038A0002068406920F02A00216848612068C068CB
:1038B00040F400502168C86000206064202084F833
:1038C000410084F842000020606300BFC8E70000A8
:1038D00010B586B004460020029003900490059035
:1038E0005249206888422FD100BF5148806940F476
:1038F00080404F4988610846806900F4804001900B
:1039000000BF00BF00BF0846806940F00400886126
:103910000846806900F00400019000BF00BF481510
:103920000290022003900320059002A94148FEF76F
:103930006DF84FF48060029000200390049002A97B
:103940003C48FEF763F86EE03B49206888426AD144
:1039500000BF3748C06940F400303549C8610846A7
:10396000C06900F40030019000BF00BF00BF0846EE
:10397000806940F0040088610846806900F0040016
:10398000019000BF00BF042002900220039003209A
:10399000059002A92748FEF739F808200290002078
:1039A0000390049002A92348FEF730F823482449E5
:1039B0000860002048600021214881608021C160AA
:1039C000002101614161202181610021C161FDF778
:1039D00087FF08B1FDF784FA00BF1948E06344622D
:1039E00000BF1648143017490860102048600021B5
:1039F000144881608021C1600021016141618161C1
:103A0000C161FDF76DFF08B1FDF76AFA00BF0D480F
:103A1000A063446200BF002205212620FEF7E8FDD6
:103A20002620FEF7D5FD06B010BD0000003801408D
:103A30000010024000080140004400406C000240B9
:103A40008C020020D002002070B504460D461646B8
:103A500094F8420020280BD105B10EB9012070BDA9
:103A60000020206332462946204601F0B3FAF6E7EB
:103A70000220F4E7704770472DE9F84F04460E46E0
:103A8000174699464FF0000A94F84100202850D17B
:103A900006B117B90120BDE8F88F0020606421202D
:103AA00084F84100FEF750F98246A784E784A068B5
:103AB000B0F5805F04D1206910B90025B04602E05E
:103AC00035464FF000081EE0534600228021204674
:103AD000CDF8009001F012FB20B1202084F84100C5
:103AE0000320D8E745B9B8F80000C0F30800216802
:103AF000486008F1020803E02878216848606D1CDE
:103B0000E08C401EE084E08C0028DDD1534600228A
:103B100040212046CDF8009001F0F0FA20B120209D
:103B200084F841000320B6E7202084F841000020FB
:103B3000B1E70220AFE7704700BFFEE70146086823
:103B40004069C0F38020B0B16FF480600A685061B2
:103B500000200863202081F83D00002081F83E000D
:103B6000086C40F00400086400BF002081F83C00AD
:103B700000BF012070470020FCE700002DE9F8435A
:103B800004460D4690461E46E76A2068006840F4E9
:103B9000806021680860082F04D0012F02D017F53B
:103BA000803F06D12068006840F48070216808607A
:103BB00008E0206B112805D12068006840F480706F
:103BC00021680860434600224FF00111204600960C
:103BD00000F003F960B12068006800F48070B0F56F
:103BE000807F02D14FF4007020640320BDE8F88389
:103BF0002069B0F5804F05D1E8B240F0010021689E
:103C0000086149E005F44070F02141EAE0102168C4
:103C10000861334642462649204600F03DF908B186
:103C20000120E3E7E8B221680861334642462049B3
:103C3000891F204600F030F908B10120D6E700BF07
:103C40000020009020684069009020688069009002
:103C500000BF00BF2068006840F4807021680860E1
:103C6000434600224FF001112046009600F0B5F8BF
:103C700058B12068006800F48070B0F5807F02D1F0
:103C80004FF4007020640320B0E705F44070F12188
:103C900041EAE01021680861334642460449891F21
:103CA000204600F0F9F808B101209FE700209DE7C9
:103CB000080001002DE9F84304460D4617469846D2
:103CC000E66A082E04D0012E02D016F5803F06D1F8
:103CD0002068006840F480702168086008E0206B6C
:103CE000122805D12068006840F4807021680860BF
:103CF0003B4600224FF001112046CDF8008000F035
:103D00006CF860B12068006800F48070B0F5807FC6
:103D100002D14FF4007020640320BDE8F8832069CD
:103D2000B0F5804F04D105F0FE002168086112E073
:103D300005F44070F02141EAE01021680861434633
:103D40003A460B49204600F0A7F808B10120E4E705
:103D5000E8B22168086143463A460549891F204672
:103D600000F09AF808B10120D7E70020D5E700005D
:103D70000800010070B504460D46164625E02046B1
:103D8000FFF7DCFE08B1012070BD681CE8B1FDF74B
:103D9000DBFF801BA84200D8BDB920684069C0F392
:103DA000800090B900202063202084F83D0000208E
:103DB00084F83E00206C40F02000206400BF00200A
:103DC00084F83C0000BF0120DEE720684069C0F3B2
:103DD00080000028D3D00020D6E72DE9F04104462A
:103DE0000D4617461E46DDF8188038E0701CA8B353
:103DF000FDF7AAFFA0EB0800B04200D876BBC5F3E0
:103E0000074001280AD120684069A9B20840A9B238
:103E1000884201D101200BE0002009E02068806980
:103E2000A9B20840A9B2884201D1012000E00020D7
:103E3000B84214D100202063202084F83D000020E7
:103E400084F83E00206C40F02000206400BF002079
:103E500084F83C0000BF0120BDE8F081FFE7C5F316
:103E6000074001280AD120684069A9B20840A9B2D8
:103E7000884201D101200BE0002009E02068806920
:103E8000A9B20840A9B2884201D1012000E0002077
:103E9000B842ABD00020DFE72DE9F04104460D46E3
:103EA00016461F4658E020684069C0F38020E8B1FC
:103EB0002068006840F40070216808606FF480603A
:103EC0002168486100202063202084F83D00002004
:103ED00084F83E00206C40F00400206400BF002005
:103EE00084F83C0000BF0120BDE8F081701C90B355
:103EF000FDF72AFFC01BB04200D866BBC5F30740E0
:103F000001280AD120684069A9B20840A9B28842B4
:103F100001D101200BE0002009E020688069A9B2EE
:103F20000840A9B2884201D1012000E0002090B9E8
:103F300000202063202084F83D00002084F83E000B
:103F4000206C40F02000206400BF002084F83C007A
:103F500000BF0120C8E7FFE7C5F3074001280AD1E9
:103F600020684069A9B20840A9B2884201D1012065
:103F70000BE0002009E020688069A9B20840A9B2DE
:103F8000884201D1012000E0002000288BD00020D1
:103F9000AAE770B504460D46164637E0206840692A
:103FA000C0F30010A0B16FF010002168486100203C
:103FB0002063202084F83D00002084F83E00206C1F
:103FC000206400BF002084F83C0000BF012070BDC9
:103FD000FDF7BAFE801BA84200D8BDB92068406931
:103FE000C0F3801090B900202063202084F83D00A9
:103FF000002084F83E00206C40F02000206400BFC8
:10400000002084F83C0000BF0120E0E72068406900
:10401000C0F380100028C1D00020D8E770B5044656
:104020000D46164625E02046FFF788FD08B1012021
:1040300070BD681CE8B1FDF787FE801BA84200D860
:10404000BDB920684069C0F3C01090B9002020635A
:10405000202084F83D00002084F83E00206C40F0D1
:104060002000206400BF002084F83C0000BF012035
:10407000DEE720684069C0F3C0100028D3D00020DC
:10408000D6E700000EB50020009001900290114884
:1040900011490860002110488160017301754FF4D7
:1040A0006021C16100200C49486001210A4801617A
:1040B000FDF75CF808B1FCF713FF012000900190B8
:1040C0000020029069460448FCF79CFF08B1FCF709
:1040D00007FF0EBD002401403001002008B500BFDD
:1040E0000E48406940F001000C49486108464069AB
:1040F00000F00100009000BF00BF00220521102049
:10410000FEF776FA1020FEF763FA0022052111204F
:10411000FEF76EFA1120FEF75BFA08BD00100240B0
:1041200010B50E4A00210E4803F001FB0D4908604E
:104130000D4A00210D4803F0FAFA0D4908600D4AB6
:1041400000210D4803F0F3FA0C4908600C4A0021E5
:104150000C4803F0ECFA0C49086010BDA4A000085C
:10416000D983000800000020C8A000084588000886
:1041700004000020ECA000083174000808000020B2
:1041800010A10008C56A00080C00002000B585B029
:104190000020019002900390049000BF3248806993
:1041A00040F01000304988610846806900F0100036
:1041B000009000BF00BF00BF0846806940F02000AB
:1041C00088610846806900F02000009000BF00BFB1
:1041D00000BF0846806940F0040088610846806995
:1041E00000F00400009000BF00BF00BF08468069D7
:1041F00040F0080088610846806900F008000090DF
:1042000000BF00BF00224FF460411848FDF796FD43
:1042100001224FF440611648FDF790FD4FF46040D5
:10422000019001200290002003900220049001A937
:104230000E48FDF7EBFB4FF4406001901120029017
:10424000002003900320049001A90948FDF7DEFB3C
:1042500038200190002002900120039001A9044819
:10426000FDF7D4FB05B000BD001002400010014076
:10427000000C014010B50B480B4908600B48486022
:10428000002109488160C1604FF480410161002133
:1042900041618161C1610162FDF760FD08B1FCF718
:1042A0001FFE10BD0054004060010020A0860100E8
:1042B00000B589B00020079008901C216846FBF7E4
:1042C000A8FF184818490860472048600021164890
:1042D000816040F2E731C160002101618161FFF737
:1042E00082F808B1FCF7FCFD00200790089007A9B0
:1042F0000D48FEF75FFE08B1FCF7F2FD602000906C
:104300000020019002900490002269460648FEF7C2
:10431000E8FF08B1FCF7E4FD0348FEF7B5FF09B07C
:1043200000BD000000040040B401002010B50B489F
:104330000B4908604FF4E130486000210848816073
:10434000C16001610C21416100218161C161FFF700
:1043500083FA08B1FCF7C4FD10BD0000003801402D
:10436000FC01002010B50B480B4908604FF4E13008
:104370004860002108488160C16001610C214161F1
:1043800000218161C161FFF767FA08B1FCF7A8FD60
:1043900010BD0000004400404402002000BFFEE7C2
:1043A00000BFFEE700200CE0002106E00022064BE3
:1043B00003EBC0135A544A1CD1B28029F6DB421CCD
:1043C000D0B20828F0DB7047884000202DE9F04388
:1043D00004460D4616461F46284638E0224631E080
:1043E000002A2DDB7F2A2BDC002829DB3F2827DC55
:1043F0004FEAE07C00EB5C7C4FEAEC0CDFF8588085
:1044000008EBCC1C1CF802C003464FEAE07800EB36
:1044100058784FEAE808A0EBC8094FF0010808FAFD
:1044200009F82CEA080C01464FEAE07800EB5878CE
:104430004FEAE808DFF8209009EBC81808F802C036
:10444000511C0AB2A1199142CADC411C08B2E919F7
:104450008142C3DCBDE8F0838840002070B50024B1
:1044600006E0002500E06D1CB5F57A7FFBD3641CE7
:10447000B4F57A7FF5D36420FDF7B4FA012000F09B
:10448000FBF9012000F004FA0A20FDF7ABFA70BD39
:1044900070B50546002411E080212141294009B171
:1044A000012100E00021084600F0F2F9012000F0AF
:1044B000E3F9002000F0E0F9601CC4B2082CEBDB4B
:1044C000012000F0D9F9002000F0D6F970BD10B538
:1044D000012000F0DDF9012000F0CEF9002000F00D
:1044E000D7F9002000F0C8F910BD10B5002000F089
:1044F000CFF9012000F0C0F9012000F0C9F910BD8A
:1045000010B5FFF7ABFFAE2000F0CEF9D52000F0DC
:10451000CBF9802000F0C8F9A82000F0C5F93F20B1
:1045200000F0C2F9D32000F0BFF9002000F0BCF980
:10453000402000F0B9F9A12000F0B6F9C82000F041
:10454000B3F9DA2000F0B0F9122000F0ADF98120C3
:1045500000F0AAF9CF2000F0A7F9D92000F0A4F9C3
:10456000F12000F0A1F9DB2000F09EF9302000F0EE
:104570009BF9A42000F098F9A62000F095F98D2071
:1045800000F092F9142000F08FF9AF2000F08CF9C0
:10459000FFF708FF00F05CF910BD0FB470B5C2B0B2
:1045A00005460E4614464AA8019002A8019A499968
:1045B00000F00EFE00200190234602AA3146284654
:1045C00000F0BEF842B070BC5DF814FB70B5054653
:1045D0000C4645F0B00000F067F9102141EA1410D4
:1045E00000F062F904F00F0000F05EF970BD000009
:1045F000F8B506460F4614461D46082D0CD1A4F109
:1046000020000E4901EB00101023082239460090CB
:10461000304600F017F80FE0062D0DD1A4F1200070
:1046200000EB4000064901EB400008230622394612
:104630000090304600F006F8F8BD000070A10008B8
:1046400060A700082DE9FF4F80460E469146DDF831
:1046500034B0002500244A4631464046039BFFF70C
:10466000B5FE00BF5EE0002558E008EB050000281D
:1046700052DB08EB05007F284EDC3046F11706EBD5
:104680005171C9100FB2F11706EB5171C910A6EBA9
:10469000C10A002E05DA781E07B20AF108000FFAE7
:1046A00080FA3819002817DB3819072814DC381964
:1046B000224901EBC01008EB0501405C04FB0951E5
:1046C0001BF8011001FA0AF1084339191B4A02EBE1
:1046D000C11108EB050288543819401C00281BDB67
:1046E0003819401C072817DC3819401C134901EB06
:1046F000C01008EB0501405C04FB09511BF80110D8
:10470000CAF10802114108433919491C0B4A02EB4E
:10471000C11108EB05028854681CC5B24D45A4DBE5
:10472000601CC4B20399481EC11700EB51710122ED
:1047300002EBE101A14296DCBDE8FF8F884000203A
:104740002DE9FE4F07468A46144698460025AB469B
:10475000002672E0605D00F0800058B94FF0010B58
:104760002846691C8DB2205C8DF8040000208DF86D
:10477000050013E04FF0020B2846691C8DB2205C47
:104780008DF80400605D00B95AE02846691C8DB2BE
:10479000205C8DF8050000208DF80600BBF1010FAC
:1047A0000BD19DF80420B91908B243465146FFF7D2
:1047B0001FFF06EB080086B23FE04FF000090EE055
:1047C000C9EBC90101EB81011F4A881801A9FBF758
:1047D00044FD00B90EE009F101001FFA80F9C9EBB0
:1047E000C90101EB8101184A881818A1FBF735FDB2
:1047F0000028E5D100BFB8F1080F12D1C9EBC900FC
:1048000000EB800010490844C01CB919009008B2A0
:1048100010231A465146FFF715FF06F1100086B225
:104820000BE0B8F1060F08D1B91908B206233F22F0
:104830005146FFF7DDFEB01D86B2605D002889D1CC
:1048400000BFBDE8FE8F00009AA90008000000002C
:1048500010B500240BE000212046FFF7B7FE054904
:1048600001EBC410802100F02FF8601CC4B2082CAA
:10487000F1DB10BD8840002010B5044622464FF4FD
:1048800080610248FDF75AFA10BD0000000C01409B
:1048900010B5044622464FF400610248FDF74EFA77
:1048A00010BD0000000C014010B50446FFF70FFEDC
:1048B0007820FFF7EDFD0020FFF7EAFD2046FFF727
:1048C000E7FDFFF712FE10BD70B505460E46FFF777
:1048D000FEFD7820FFF7DCFD4020FFF7D9FD002426
:1048E00004E0285DFFF7D4FD601CC4B2B442F8DBDD
:1048F000FFF7FBFD70BD000008B508490968C9084D
:104900004FF47A72B1FBF2F14143009100BF00BF56
:1049100000994A1E00920029F9D108BD1C00002010
:1049200010B54FF0E020006905F00AF9012801D028
:1049300004F0D2FB10BD00B593B0282109A8FBF705
:1049400068FC142104A8FBF764FC0020009001908F
:10495000029003900120099000040A9000200B901F
:1049600001200D9002201090C10311914FF4E0112D
:10497000129109A8FEF7EAF808B1FCF7B1FA0F2086
:10498000049002200590002006904FF4806007906C
:1049900000200890022104A8FDF792FF08B1FCF75F
:1049A0009FFA02200090800302906846FDF7F0FE17
:1049B00008B1FCF795FA13B000BD704710B5024876
:1049C000FEF7ABFB10BD00001403002010B5026819
:1049D0001C4B984208D0B0F1804F05D01A4B98423A
:1049E00002D01A4B984203D122F070024B681A434E
:1049F000144B984208D0B0F1804F05D0124B98422A
:104A000002D0124B984203D122F44072CB681A4371
:104A100022F080034C6943EA040202608B68C3629F
:104A20000B688362074B984201D10B690363012332
:104A30004361036903F001031BB1036923F0010320
:104A4000036110BD002C014000040040000800403C
:104A500030B501F01F05012404FA05F3046A9C43F4
:104A60000462046A01F01F0502FA05F52C43046292
:104A700030BD000030B5026A056A25F00105056207
:104A80004368846924F0700424F003040D682C4307
:104A900022F002028D682A430D4DA84206D100BFC4
:104AA00022F00802CD682A4322F00402084DA842F1
:104AB00007D123F4807323F400734D692B438D6970
:104AC0002B43436084614D684563026230BD000042
:104AD000002C014030B5026A056A25F01005056218
:104AE0004368846924F4E04424F440740D6844EA83
:104AF000052422F020028D6842EA05120E4DA842DC
:104B000007D100BF22F08002CD6842EA051222F0F0
:104B10004002094DA84209D123F4806323F40063C5
:104B20004D6943EA85038D6943EA850343608461E7
:104B30004D688563026230BD002C014030B5026AC9
:104B4000056A25F4807505624368C46924F0700421
:104B500024F003040D682C4322F400728D6842EAAD
:104B600005220F4DA84207D100BF22F40062CD6894
:104B700042EA052222F48062094DA84209D123F4B9
:104B8000805323F400534D6943EA05138D6943EACA
:104B900005134360C4614D68C563026230BD000007
:104BA000002C014030B5036A056A25F48055056282
:104BB0004468C26922F4E04222F440720D6842EA7D
:104BC000052223F400538D6843EA0533064DA842BD
:104BD00004D124F480444D6944EA85144460C261E0
:104BE0004D680564036230BD002C014070B5054678
:104BF0006C6A0020E085E0842046FEF7B9FC70BDB9
:104C000070B506460025746A20684069C0F3C01577
:104C100094F84100212805D125B10020E0842046E8
:104C200000F0C8F820684069C0F3801594F842008D
:104C3000222805D125B10020E085204600F074F837
:104C4000606C40F0100060642046FEF791FC70BD7F
:104C500070B505466C6A2868006800F020000028DE
:104C600042D1E08500BF00BF21680C3151E8001F30
:104C700021F4807021680C3141E80002002AF3D150
:104C800000BF00BF00BF2168143151E8001F21F0B0
:104C900001002168143141E80002002AF3D100BF6D
:104CA00000BF00BF2168143151E8001F21F040000F
:104CB0002168143141E80002002AF3D100BF20200E
:104CC00084F84200206B01280ED100BF00BF21688C
:104CD0000C3151E8001F21F0100021680C3141E82F
:104CE0000002002AF3D100BF00206063206B01287E
:104CF00004D1A18D2046FEF73AFC02E02046FEF7E3
:104D0000B9FE70BD70B505466C6A01206063206B0A
:104D1000012805D1A08D41082046FEF728FC02E0BD
:104D20002046FEF7A8FE70BD00BF00BF02680C322F
:104D300052E8002F22F4907102680C3242E800130E
:104D4000002BF3D100BF00BF00BF0268143252E84D
:104D5000002F22F001010268143242E80013002BF8
:104D6000F3D100BF016B01290ED100BF00BF026863
:104D70000C3252E8002F22F0100102680C3242E897
:104D80000013002BF3D100BF202180F84210002136
:104D90000163704710B504462068C06820F04000E9
:104DA0002168C860202084F841002046FEF7C3FE39
:104DB000002010BD00BF00BF02680C3252E8002F77
:104DC00022F0C00102680C3242E80013002BF3D13C
:104DD00000BF202180F841107047F8B5044694F8D0
:104DE0004200222875D1A068B0F5805F0CD12069FF
:104DF00050B90025A66A20684068C0F308003080DA
:104E0000A06A801CA06215E0A56A0026A068B0F523
:104E1000805F03D0A06828B9206918B9206840686D
:104E2000287004E02068406800F07F002870A06AC5
:104E3000401CA062E08D401E80B2E085002846D173
:104E40002068C06820F020002168C8602068C06821
:104E500020F480702168C8602068406920F001005B
:104E600021684861202084F8420000206063206BA4
:104E7000012826D10020206300BF00BF21680C312B
:104E800051E8001F21F0100021680C3141E80002B8
:104E9000002AF3D100BF2068006800F0100010283D
:104EA0000AD100BF002000902068006800902068B0
:104EB0004068009000BF00BFA18D2046FEF757FB61
:104EC00002E02046FEF7D6FD0020F8BD01E00020FC
:104ED000FBE70220F9E7000070B504462168096984
:104EE00021F44051E2681143226811612269A168EE
:104EF0001143626941EA02052168C96841F20C6206
:104F0000914329432268D1602168496921F44071A5
:104F1000A2691143226851612D4A2168914202D150
:104F2000FDF7CCFD01E0FDF7B9FD00EBC00101EBA1
:104F3000001162689200B1FBF2F100EBC00202EBDB
:104F4000001263689B00B2FBF3F26423B2FBF3F23E
:104F500002EBC20303EB0212A1EB8201322202EB4D
:104F600001116422B1FBF2F101F0F00100EBC0028B
:104F700002EB001263689B00B2FBF3F26423B2FB06
:104F8000F3F201EB021200EBC00101EB00116368C8
:104F90009B00B1FBF3F100EBC00303EB0013666869
:104FA000B600B3FBF6F36426B3FBF6F303EBC306DC
:104FB00006EB0313A1EB8301322303EB01116423FE
:104FC000B1FBF3F101F00F0111442268916070BD53
:104FD0000038014077B581B0044615460298A062BA
:104FE000A58500206064222084F842002848E16BF7
:104FF00088622848E16BC8622748E16B086300209B
:10500000E16B486302AE32682368191D2B46E06BE2
:10501000FCF79AFC00BF0020009020680068009018
:1050200020684068009000BF00BF206970B100BFD9
:1050300000BF21680C3151E8001F41F480702168E5
:105040000C3141E80002002AF3D100BF00BF00BFCD
:105050002168143151E8001F41F00100216814312A
:1050600041E80002002AF3D100BF00BF00BF216861
:10507000143151E8001F41F040002168143141E82B
:105080000002002AF3D100BF002004B070BD000070
:10509000514C0008054D0008014C0008014691F8EC
:1050A0004100212828D18868B0F5805F0BD10869BC
:1050B00048B90A6A1088C0F308000B685860086A8B
:1050C000801C086205E00B6A581C086218780B689F
:1050D0005860C88C401E80B2C88458B90868C0683F
:1050E00020F080000B68D8600868C06840F040007D
:1050F0000B68D860002070470220FCE72DE9F843D8
:1051000004460D4617469846089E31E0701C70B361
:10511000FCF71AFEA0EB0800B04200D816B9032035
:10512000BDE8F8832068C06800F00400F8B1802D65
:105130001ED0402D1CD020680068C0F3C000B0B164
:1051400000BF002000902068006800902068406840
:10515000009000BF00BF2046FFF7E6FD0820606416
:1051600000BF002084F8400000BF0120D8E7FFE71F
:10517000206800682840A84201D1012000E00020FA
:10518000B842C3D00020CBE710B50248FEF7F2F9D1
:1051900010BD00004402002000BFFEE70FB47CB544
:1051A0000C0009AD01D0611E00E00021CDE9000135
:1051B000064B6A462946089800F064FB002C02D092
:1051C000009A002111707CBC5DF814FBB5610008E9
:1051D00037B514460846064B6A46214600F052FB96
:1051E00004466946002000F0F0FF20463EBD000066
:1051F000CB61000802480068C0F30220704700003D
:105200000CED00E010B5002804DB0A07130E054A78
:10521000135406E00A07140E034A00F00F031B1F85
:10522000D45410BD00E400E018ED00E0EFF3058079
:10523000704702E008C8121F08C1002AFAD170475F
:105240007047002001E001C1121F002AFBD1704706
:1052500010B51048007820B90021022000F02AFA89
:1052600010BD0D480088401C0B4908800846008886
:1052700019280CD3002008800848007880F001002D
:105280000649087008460178022000F013FA00BFB2
:10529000E6E700002301002026010020280100206D
:1052A00030B503460A46334C246804B930BD03B117
:1052B00012BB314C24682CB900242E4D2D682D686A
:1052C0006C6318E02C4C2468042C05D10024294D73
:1052D0002D682D68AC630EE0274C2468082C05D19E
:1052E0000024244D2D682D68EC6304E00024214D3A
:1052F0002D682D682C64D9E7204CB4FBF2F000B97E
:105300000120401EB0F5803F01D34FF6FF7000BF73
:1053100084B2184D2D682D68EC6285B2154C246856
:10532000E56000BF0024134D2D682D686C62441C9D
:10533000C4F34F01104C246824B90E4C246824682F
:10534000616315E00C4C2468042C04D1094C2468DA
:105350002468A1630CE0084C2468082C04D1054C97
:1053600024682468E16303E0024C24682468216413
:1053700000BF9BE7100100201401002040420F00F5
:105380003EB5044600200090019002900094012058
:10539000019007200290694604480068FBF732FE3E
:1053A00008B901203EBD0020FCE70000DC00002021
:1053B00003468B4201DA08467047934201DD1046EE
:1053C000FAE7D8B2F8E703468B4201DA084670479D
:1053D000934201DD1046FAE7D8B2F8E730B502464D
:1053E0000B46FF20002113E0545C604000240BE0DA
:1053F00000F0800525B1312585EA4005E8B201E0DD
:105400004506280E651CECB2082CF1DB4C1CE1B201
:105410009942E9DB30BD000070B505460C460848EE
:10542000006800B970BD15B1284600F00DF814B140
:10543000204600F009F803A000F006F800BFF1E7ED
:10544000B40000200D0A000070B50446074800684B
:1054500000B104B970BD2046FAF7F8FE85B22946BE
:10546000204600F005F800BFF4E70000B40000207B
:1054700070B505460C460848006808B105B104B986
:1054800070BD4FF4FA632246294603480068FEF7D0
:10549000F3FA00BFF4E70000B40000200B480068F6
:1054A00018B10A480068C06B08B900207047074867
:1054B0000068C06B0068406881B2B1F5806F01D9A7
:1054C0004FF48061C1F5806080B2EFE7B00000204A
:1054D0002DE9FF5F82B00021DDE90430020DDDF827
:1054E00040B0034318D044F61050A2F2FF324243BA
:1054F0001514119801281FD0A5EB0B00401C5FEA82
:10550000000A4FF000064E4FDFF83891B046504683
:1055100015D5CAF1000413E0119801244AA301280B
:1055200001D16FEA0B010298119AC0E90031C0E97C
:10553000024206B0BDE8F09FCBF10000DFE7044671
:105540000021404A491842EB0450CDE9001012E016
:10555000E00707D032463B4640464946FAF732FF5D
:105560008046894632463B4610461946FAF72AFFDE
:1055700006460F466410002CEAD1DDE90401DDE99E
:105580000023BAF1000F06DAFAF71CFF42464B4639
:10559000FAF718FF05E0FAF787FF42464B46FAF79D
:1055A00083FF04460E460022284BFAF7EDFF03D88E
:1055B0004FF0FF30014607E00022254B20463146E0
:1055C000FAF759FEFBF7BDF8102409E0002C0ADBBE
:1055D0000A220023FBF706F8039B30321A55641E9B
:1055E00050EA0102F2D1641C039AC4F1110314447D
:1055F000119A012A03D0012208430DD10AE0084381
:1056000004D000204FF0110B119072E7A3EB0B05B3
:105610006D1E0DE05B4504DD4FF0000205F1010554
:1056200004E003DA4FF00002A5F10105002AECD0F6
:1056300002981199C0E90231C0E9004579E70000FC
:10564000000014400000F03F300000000000F04374
:105650000000E03F0246012A04D0022A06D0032AB5
:105660000CD107E004200870064870470620087037
:105670000548FAE7022008700448F6E700200870A1
:1056800000BFF2E7ACB50008C4B50008E8B50008F3
:1056900070B505460C460CB1207808B9002070BDE5
:1056A00021462846FAF7C0FD08B10120F7E700209F
:1056B000F5E7000070B504460D462E46054A02EB9C
:1056C000C4029188034A52F834003246FCF736FB94
:1056D00070BD0000F4B5000838B5044606480078EF
:1056E0004006050E14200223224629460090034856
:1056F0000068FCF71BFC38BDA8000020A4000020B7
:1057000038B50446064800784006050E14200623E6
:1057100022462946009003480068FCF707FC38BD84
:10572000D4000020D000002011B581B006480078D8
:105730004006040E1420012301AA214600900348CC
:105740000068FCF7A9FD1CBDA8000020A4000020F3
:105750007CB504460D46094800784006060E8DF8D3
:1057600004408DF805501420022301AA3146009010
:1057700003480068FCF790FD7CBD0000D4000020C9
:10578000D000002010B504460CB1207808B90020E4
:1057900010BD12A12046FAF747FD08B10120F7E736
:1057A00011A12046FAF740FD08B10120F0E711A150
:1057B0002046FAF739FD08B10120E9E70FA120469C
:1057C000FAF732FD08B10120E2E70EA12046FAF710
:1057D0002BFD08B10120DBE70020D9E70D0A455277
:1057E000524F520D0A0000000D0A4641494C0D0A65
:1057F000000000004552524F520000004641494C03
:1058000000000000434C4F53454400002DE9F04197
:1058100006460F4615461C4616B10A48006808B9E8
:10582000BDE8F08120882F542088401C20802088EB
:10583000402805D321882846FFF71AFE0020208043
:1058400000BFEDE7B400002010B50C48007820B18F
:1058500001210846FFF72EFF10BD094800880A30D5
:105860000749088008460088FA2804DB00200880E1
:10587000012001F007F900BFEEE70000220100203F
:10588000240100202DE9FF4F95B09A468846064630
:105890000025EEE1252877D100242746F94A012189
:1058A000039400E0044316F8013F203B01FA03F0A3
:1058B0001042F7D130782A2811D06FF02F033078BA
:1058C000A0F13002092A16D8039A44F0020402EB30
:1058D000820203EB42021044761C0390EFE758F873
:1058E000042B0392002A03DA504244F4005403903C
:1058F00044F00204761C30782E2816D116F8010FD9
:1059000044F004042A280DD06FF02F023078A0F163
:105910003003092B09D807EB870302EB4303C718B1
:10592000761CF3E758F8047B761C30786C280FD08F
:1059300006DC4C2817D068280DD06A2814D104E062
:10594000742810D07A280FD10DE044F400140AE036
:1059500044F4801401E044F440147278824202D18D
:1059600004F58014761C761C307866280BD013DC86
:10597000582877D009DC002875D04528F6D046286D
:10598000F4D047281AD193E118E0632835D0642871
:1059900079D0652812D18BE1702873D008DC672894
:1059A000F1D069286FD06E280DD06F2806D1ACE0F9
:1059B00073282CD0752874D0782853D05246179964
:1059C00090476D1C54E1C4F30250022809D003280B
:1059D0000DD0D8F8001004280DD00D6008F104088F
:1059E00046E1D8F80010EA17C1E90052F6E7D8F806
:1059F00000100D80F2E70D70F0E718F8041B8DF829
:105A0000001000208DF80100EB46012003E058F85B
:105A100004BB4FF0FF3061074FF0000102D40DE0EE
:105A200009F101018946B9420FDA8145F8DB1BF81B
:105A300009100029F4D108E009F1010189468142E9
:105A4000FADB1BF809100029F6D103985346A0EBA6
:105A5000090721463846179A00F080FA284400EBDF
:105A6000090507E044E008E10DE01BF8010B524690
:105A700017999047B9F10109F7D2534621463846A4
:105A8000179AF2E039E00A21C4F302524FF0000BFA
:105A90000091022A06D058F8040BC117032A09D036
:105AA0000AE023E008F1070020F00702F2E8020113
:105AB000904605E000B2C117042A01D140B2C117D7
:105AC000002906DA0A460021404261EB02012D223C
:105AD00002E0220504D52B228DF80420012203E0E8
